:100000000C9458000C9480000C9480000C94800098
:100010000C9480000C9480000C9480000C94800060
:100020000C9480000C9480000C9480000C94800050
:100030000C9480000C9480000C9480000C94800040
:100040000C94B7040C9480000C947D040C9442042E
:100050000C9480000C9480000C9480000C94800020
:100060000C941B030C948000000000002500280065
:100070002B00040404040404040402020202020229
:10008000030303030303010204081020408001025C
:1000900004081020010204081020000000070002DC
:1000A00001000003040600000000000000005405E9
:1000B00011241FBECFEFD4E0DEBFCDBF11E0A0E022
:1000C000B1E0ECE1FCE002C005900D92AC32B1076A
:1000D000D9F722E0ACE2B1E001C01D92AB35B20726
:1000E000E1F710E0C8E5D0E004C02197FE010E94CE
:1000F0000606C735D107C9F70E945A050C94E105D9
:100100000C9400000F931F93CF93DF93C9E3D2E0C9
:10011000E881F9810190F081E02D6DE0CE01099533
:100120008C01E881F9810190F081E02D6AE0CE0137
:100130000995800F911FDF91CF911F910F91089525
:1001400090E0FC01E656FF4F2491FC01EA57FF4F77
:100150003491FC01EE58FF4FE491EE23B1F12223DC
:1001600039F1233091F038F42130A9F0223001F533
:1001700084B58F7D12C0263091F02730A1F0243055
:10018000B9F4809180008F7D03C0809180008F77CB
:10019000809380000DC084B58F7784BD09C08091A5
:1001A000B0008F7703C08091B0008F7D8093B00046
:1001B000F0E0EE0FFF1FE859FF4FA591B4918FB704
:1001C000F894EC91E32BEC938FBF089585ED809329
:1001D000BC008091BC0084FDFCCF109213020895F6
:1001E000613298F420911302243089F46093EF0176
:1001F000282FAFECB1E0FC018E2F821B861718F47C
:1002000081918D93F9CF80E0089581E0089582E097
:1002100008951092130281E0809315021092140247
:1002200082E10E94A00083E10E94A000E9EBF0E0DF
:1002300080818E7F808380818D7F808380E2809328
:10024000B80085E48093BC000895089581E090E0B3
:100250003091C2012091C101321710F480E090E08A
:1002600091958195910908958091C2019091C10164
:10027000891730F48F5F8093C20180E090E0089589
:100280008FEF9FEF08958091C10190E02091C2010E
:10029000821B91090895CF93DF93CB01EA01642F6C
:1002A0000E94F000CE01DF91CF910895CF93DF93AC
:1002B0001F92CDB7DEB7698361E0CE0101960E943F
:1002C000F00081E090E00F90DF91CF9108950F93BF
:1002D0001F93CF93DF93FC01A685B7858D01005C4A
:1002E0001F4FE8018881998101968F739927AD018D
:1002F0004E5B5F4FEA012881398128173907D1F316
:10030000E80128813981A20FB31F6C93A685B785B8
:10031000A05CBF4F11969C938E93A689B7892C91B0
:1003200081E090E0078C02C0880F991F0A94E2F7E1
:10033000822B8C9381E081A30488F589E02D808154
:100340008064808381E090E0DF91CF911F910F91D5
:100350000895FC0181A1882329F0A489B5898C9195
:1003600086FFFBCF11A20895FC01A485B585FD0190
:10037000E05CFF4F20813181329680819181281786
:10038000390779F080819181A80FB91F8C91208164
:1003900031812F5F3F4F2F7333273183208390E0CC
:1003A00008958FEF9FEF0895DC011C96ED91FC916D
:1003B0001D97DF01A05CBF4F2D913C9111971296C4
:1003C0008D919C9111972817390739F08D919C9147
:1003D000E80FF91F808190E008958FEF9FEF089557
:1003E000FC0124853585F901E05CFF4F8081918116
:1003F000329620813181821B930B8F739927089548
:1004000089E392E00C94F0010895CF92DF92EF928D
:10041000FF920F931F93CF93DF936C01EB017B014E
:10042000E40EF51E00E010E0CE15DF0561F06991E5
:10043000D601ED91FC910190F081E02DC601099566
:10044000080F191FF1CFC801DF91CF911F910F91B4
:10045000FF90EF90DF90CF900895789484B58260FC
:1004600084BD84B5816084BD85B5826085BD85B558
:10047000816085BDEEE6F0E0808181608083E1E807
:10048000F0E010828081826080838081816080833F
:10049000E0E8F0E0808181608083E1EBF0E0808142
:1004A00084608083E0EBF0E0808181608083EAE714
:1004B000F0E080818460808380818260808380819D
:1004C000816080838081806880831092C10008955C
:1004D0003FB7F8948091310190913201A09133019E
:1004E000B091340126B5A89B05C02F3F19F00196A5
:1004F000A11DB11D3FBFBA2FA92F982F8827820FAA
:10050000911DA11DB11DBC01CD0143E0660F771FF8
:10051000881F991F4A95D1F70895CF92DF92EF92E5
:10052000FF92CF93DF930E946802EB0188EEC82E02
:1005300083E0D82EE12CF12C0E9468026C1B7D0B0D
:10054000683E7340C8F381E0C81AD108E108F10899
:10055000C851DC4FC114D104E104F10469F7DF9103
:10056000CF91FF90EF90DF90CF900895009799F092
:10057000FC0101900020E9F73197AF01481B590BAE
:10058000E0913902F0913A020280F381E02DBC0142
:1005900089E392E0099480E090E008958F929F9221
:1005A000AF92BF92EF92FF920F931F93CF93DF937F
:1005B000CDB7DEB7A1970FB6F894DEBF0FBECDBFA3
:1005C000162F042F19A2423008F40AE07E0121E21E
:1005D000E20EF11C802E912CA12CB12C612FA501D3
:1005E00094010E94E405029F1019112481E0E81A89
:1005F000F1081A3014F4105D01C0195CF701108382
:10060000122F732FCA01232B242B252B39F7C70157
:100610000E94B602A1960FB6F894DEBF0FBECDBF02
:10062000DF91CF911F910F91FF90EF90BF90AF900E
:100630009F908F9008951F920F920FB60F921124E2
:100640002F933F934F935F936F937F938F939F93DA
:10065000AF93BF93EF93FF938091B900887F80366B
:1006600009F49CC068F5883209F45BC090F48031CD
:1006700009F454C038F4882309F4EFC0883009F431
:100680004DC0EFC0883109F44CC0803209F45DC020
:10069000E8C0803409F468C048F4803309F455C0D8
:1006A000883309F0DEC080931202D1C0803509F48E
:1006B0004FC0883509F45DC0883409F0D2C0CFC07E
:1006C000883909F4C0C0A8F4883709F467C038F441
:1006D000883609F463C0803709F460C0C2C0883826
:1006E00009F4B1C0803909F45FC0803809F0B9C09D
:1006F0005BC0803B09F481C038F4803A09F466C0DD
:10070000883A09F47AC0ADC0803C09F4A0C0883CA6
:1007100009F49DC0883B09F483C0A3C080913802CE
:1007200010C09091370280913602981770F5E091D1
:10073000370281E08E0F80933702F0E0EA5EFD4FD2
:1007400080818093BB0085EC7FC08093120287C0BC
:10075000E091370281E08E0F809337028091BB00D9
:10076000F0E0EA5EFD4F808390913702809136027F
:1007700067C0E091370281E08E0F8093370280914D
:10078000BB00F0E0EA5EFD4F80838091150281118D
:1007900066C081E08093140284EA5AC083E08093AB
:1007A000130210921102CFCF80911102803208F013
:1007B0004AC0E091110281E08E0F80931102809176
:1007C000BB00F0E0EF50FE4F8083BDCF809111025F
:1007D000803230F4E0911102F0E0EF50FE4F1082D1
:1007E0000E94E6006091110270E081EF91E0E0E08C
:1007F000F0E00995109211022AC084E08093130260
:100800001092F0011092EF01E0E0F0E00995809184
:10081000EF01811105C081E08093EF011092CF01BB
:10082000E091F00181E08E0F8093F001F0E0E15360
:10083000FE4F80818093BB009091F0018091EF0189
:10084000981708F480CF85E88093BC000AC085EC37
:100850008093BC001092130204C0109212020E94F6
:10086000E600FF91EF91BF91AF919F918F917F91A2
:100870006F915F914F913F912F910F900FBE0F900D
:100880001F9018951F920F920FB60F9211242F935D
:100890003F938F939F93EF93FF9320917701309134
:1008A00078018091790190917A012817390731F404
:1008B0008091C1008F7D8093C10014C0E0917901C7
:1008C000F0917A01E95CFE4F20818091790190914D
:1008D0007A0101968F73992790937A018093790119
:1008E0002093C600FF91EF919F918F913F912F919F
:1008F0000F900FBE0F901F9018951F920F920FB67A
:100900000F9211242F934F935F938F939F93EF93A5
:10091000FF938091C00082FD1CC02091C600809191
:10092000BB019091BC014091BD015091BE01019667
:100930008F7399274817590771F0E091BB01F09127
:10094000BC01E558FE4F20839093BC018093BB010E
:1009500002C08091C600FF91EF919F918F915F91AE
:100960004F912F910F900FBE0F901F9018951F92CF
:100970000F920FB60F9211242F933F938F939F9353
:10098000AF93BF9380912D0190912E01A0912F01E3
:10099000B091300130912C0126E0230F2D3720F447
:1009A0000296A11DB11D05C029E8230F0396A11DC4
:1009B000B11D20932C0180932D0190932E01A093C3
:1009C0002F01B09330018091310190913201A091BB
:1009D0003301B09134010196A11DB11D8093310105
:1009E00090933201A0933301B0933401BF91AF9142
:1009F0009F918F913F912F910F900FBE0F901F905D
:100A00001895E3ECF1E01382128288EE93E0A0E007
:100A1000B0E084839583A683B78384E191E09183DA
:100A200080830895E9E3F2E01382128288EE93E076
:100A3000A0E0B0E084839583A683B78384E091E04F
:100A4000918380838BE791E09587848787E391E0AA
:100A50009787868785EC90E0918B808B84EC90E083
:100A6000938B828B80EC90E0958B848B81EC90E073
:100A7000978B868B82EC90E0918F808F86EC90E054
:100A8000938F828F84E0848F83E0858F87E0868FC9
:100A900085E0878F81E080A30895E5E3F1E082E0BF
:100AA000808383E0818308950E9401050E941205DE
:100AB0000C944D050E942D02E0914D02F0914E02E2
:100AC00081E090E09C010090590202C0220F331F88
:100AD0000A94E2F72083E0914902F0914A021082E1
:100AE000E0914B02F0914C0228E0208310925A02D0
:100AF000E0914F02F091500240819C01009055021C
:100B000002C0220F331F0A94E2F7242B2083E091C6
:100B10004F02F091500240819C010090560202C0A9
:100B2000220F331F0A94E2F7242B2083E0914F0217
:100B3000F091500240819C010090570202C0220FA8
:100B4000331F0A94E2F7242B2083E0914F02F091A7
:100B5000500220810090580202C0880F991F0A9409
:100B6000E2F78095822380830E948D0280E291E0EB
:100B70000E94B6020E9482001092C2011092C1012E
:100B80001092BF011092C0010E94090160913501CD
:100B900070E080E090E04AE00E94CE020E94820075
:100BA0000E948D026091360170E080E090E04AE0A2
:100BB0000E94CE020E9482000E948D020E940002CA
:100BC000D5CFF8940C940C06A1E21A2EAA1BBB1BDD
:100BD000FD010DC0AA1FBB1FEE1FFF1FA217B30709
:100BE000E407F50720F0A21BB30BE40BF50B661F1F
:100BF000771F881F991F1A9469F7609570958095E3
:100C000090959B01AC01BD01CF010895EE0FFF1F30
:0C0C10000590F491E02D0994F894FFCFBA
:100C1C000000000067010502F001B401D401A90134
:100C2C000000000056014B0143013401260125014F
:0C0C3C0048656C6C6F20776F726C640070
:00000001FF
